{
  "contractName": "RedPacket",
  "abi": [
    {
      "inputs": [
        {
          "internalType": "uint256",
          "name": "_count",
          "type": "uint256"
        },
        {
          "internalType": "bool",
          "name": "_isEqual",
          "type": "bool"
        }
      ],
      "stateMutability": "payable",
      "type": "constructor",
      "payable": true
    },
    {
      "anonymous": false,
      "inputs": [
        {
          "indexed": true,
          "internalType": "address",
          "name": "account",
          "type": "address"
        },
        {
          "indexed": false,
          "internalType": "uint256",
          "name": "amount",
          "type": "uint256"
        }
      ],
      "name": "Grabbed",
      "type": "event"
    },
    {
      "inputs": [],
      "name": "count",
      "outputs": [
        {
          "internalType": "uint256",
          "name": "",
          "type": "uint256"
        }
      ],
      "stateMutability": "view",
      "type": "function",
      "constant": true
    },
    {
      "inputs": [],
      "name": "isEqual",
      "outputs": [
        {
          "internalType": "bool",
          "name": "",
          "type": "bool"
        }
      ],
      "stateMutability": "view",
      "type": "function",
      "constant": true
    },
    {
      "inputs": [
        {
          "internalType": "address",
          "name": "",
          "type": "address"
        }
      ],
      "name": "isGrabbed",
      "outputs": [
        {
          "internalType": "uint256",
          "name": "",
          "type": "uint256"
        }
      ],
      "stateMutability": "view",
      "type": "function",
      "constant": true
    },
    {
      "inputs": [],
      "name": "totalAmount",
      "outputs": [
        {
          "internalType": "uint256",
          "name": "",
          "type": "uint256"
        }
      ],
      "stateMutability": "view",
      "type": "function",
      "constant": true
    },
    {
      "inputs": [],
      "name": "yideng",
      "outputs": [
        {
          "internalType": "address payable",
          "name": "",
          "type": "address"
        }
      ],
      "stateMutability": "view",
      "type": "function",
      "constant": true
    },
    {
      "inputs": [],
      "name": "grabRedPacket",
      "outputs": [],
      "stateMutability": "nonpayable",
      "type": "function"
    }
  ],
  "bytecode": "0x608060405260405162000b8f38038062000b8f83398181016040528101906200002991906200015c565b600082116200006f576040517f08c379a0000000000000000000000000000000000000000000000000000000008152600401620000669062000204565b60405180910390fd5b336000806101000a81548173ffffffffffffffffffffffffffffffffffffffff021916908373ffffffffffffffffffffffffffffffffffffffff1602179055508160028190555080600360006101000a81548160ff02191690831515021790555034600181905550505062000226565b600080fd5b6000819050919050565b620000f981620000e4565b81146200010557600080fd5b50565b6000815190506200011981620000ee565b92915050565b60008115159050919050565b62000136816200011f565b81146200014257600080fd5b50565b60008151905062000156816200012b565b92915050565b60008060408385031215620001765762000175620000df565b5b6000620001868582860162000108565b9250506020620001998582860162000145565b9150509250929050565b600082825260208201905092915050565b7f436f756e74206d757374206265203e2030000000000000000000000000000000600082015250565b6000620001ec601183620001a3565b9150620001f982620001b4565b602082019050919050565b600060208201905081810360008301526200021f81620001dd565b9050919050565b61095980620002366000396000f3fe608060405234801561001057600080fd5b506004361061007f576000357c01000000000000000000000000000000000000000000000000000000009004806306661abd146100845780630ec0afc9146100a25780631a39d8ef146100d25780635cd52e22146100f0578063acbe84521461010e578063c4712e211461012c575b600080fd5b61008c610136565b60405161009991906104bc565b60405180910390f35b6100bc60048036038101906100b7919061053a565b61013c565b6040516100c991906104bc565b60405180910390f35b6100da610154565b6040516100e791906104bc565b60405180910390f35b6100f861015a565b6040516101059190610588565b60405180910390f35b61011661017e565b60405161012391906105be565b60405180910390f35b610134610191565b005b60025481565b60046020528060005260406000206000915090505481565b60015481565b60008054906101000a900473ffffffffffffffffffffffffffffffffffffffff1681565b600360009054906101000a900460ff1681565b6000600254116101d6576040517f08c379a00000000000000000000000000000000000000000000000000000000081526004016101cd90610636565b60405180910390fd5b60006001541161021b576040517f08c379a0000000000000000000000000000000000000000000000000000000008152600401610212906106a2565b60405180910390fd5b6000600460003373ffffffffffffffffffffffffffffffffffffffff1673ffffffffffffffffffffffffffffffffffffffff168152602001908152602001600020541461029d576040517f08c379a00000000000000000000000000000000000000000000000000000000081526004016102949061070e565b60405180910390fd5b6001600460003373ffffffffffffffffffffffffffffffffffffffff1673ffffffffffffffffffffffffffffffffffffffff1681526020019081526020016000208190555060006001600254036102f85760015490506103da565b600360009054906101000a900460ff16156103245760025460015461031d919061078c565b90506103d9565b6000600254600154610336919061078c565b9050600060028261034791906107bd565b90506000606483610358919061078c565b90506000818361036891906107ff565b90506000424433600154600254604051602001610389959493929190610842565b604051602081830303815290604052805190602001206001900490508282826103b29190610895565b6103bc91906108c6565b955060015486116103cd57856103d1565b6001545b955050505050505b5b3373ffffffffffffffffffffffffffffffffffffffff166108fc829081150290604051600060405180830381858888f19350505050158015610420573d6000803e3d6000fd5b50806001600082825461043391906107ff565b925050819055506002600081548092919061044d906108fa565b91905055503373ffffffffffffffffffffffffffffffffffffffff167f02ed32ac381066fe87179eafd360a48cf176f4ddd24b9ca192cb10dc908689d28260405161049891906104bc565b60405180910390a250565b6000819050919050565b6104b6816104a3565b82525050565b60006020820190506104d160008301846104ad565b92915050565b600080fd5b600073ffffffffffffffffffffffffffffffffffffffff82169050919050565b6000610507826104dc565b9050919050565b610517816104fc565b811461052257600080fd5b50565b6000813590506105348161050e565b92915050565b6000602082840312156105505761054f6104d7565b5b600061055e84828501610525565b91505092915050565b6000610572826104dc565b9050919050565b61058281610567565b82525050565b600060208201905061059d6000830184610579565b92915050565b60008115159050919050565b6105b8816105a3565b82525050565b60006020820190506105d360008301846105af565b92915050565b600082825260208201905092915050565b7f416c6c20726564207061636b6574732067726162626564000000000000000000600082015250565b60006106206017836105d9565b915061062b826105ea565b602082019050919050565b6000602082019050818103600083015261064f81610613565b9050919050565b7f4e6f206d6f6e6579206c65667400000000000000000000000000000000000000600082015250565b600061068c600d836105d9565b915061069782610656565b602082019050919050565b600060208201905081810360008301526106bb8161067f565b9050919050565b7f416c726561647920677261626265640000000000000000000000000000000000600082015250565b60006106f8600f836105d9565b9150610703826106c2565b602082019050919050565b60006020820190508181036000830152610727816106eb565b9050919050565b7f4e487b7100000000000000000000000000000000000000000000000000000000600052601260045260246000fd5b7f4e487b7100000000000000000000000000000000000000000000000000000000600052601160045260246000fd5b6000610797826104a3565b91506107a2836104a3565b9250826107b2576107b161072e565b5b828204905092915050565b60006107c8826104a3565b91506107d3836104a3565b92508282026107e1816104a3565b915082820484148315176107f8576107f761075d565b5b5092915050565b600061080a826104a3565b9150610815836104a3565b925082820390508181111561082d5761082c61075d565b5b92915050565b61083c816104fc565b82525050565b600060a08201905061085760008301886104ad565b61086460208301876104ad565b6108716040830186610833565b61087e60608301856104ad565b61088b60808301846104ad565b9695505050505050565b60006108a0826104a3565b91506108ab836104a3565b9250826108bb576108ba61072e565b5b828206905092915050565b60006108d1826104a3565b91506108dc836104a3565b92508282019050808211156108f4576108f361075d565b5b92915050565b6000610905826104a3565b9150600082036109185761091761075d565b5b60018203905091905056fea2646970667358221220343c9e619f8c45de0df947fc7fa94908dc4f327e3c85ad66b9d7f08eb29ed8b064736f6c63430008150033",
  "immutableReferences": {},
  "source": "// SPDX-License-Identifier: MIT\npragma solidity ^0.8.0;\n\ncontract RedPacket {\n    address payable public yideng;\n    uint256 public totalAmount;\n    uint256 public count;\n    bool public isEqual;\n    mapping(address => uint256) public isGrabbed;\n\n    // \n    event Grabbed(address indexed account, uint256 amount);\n\n    constructor(uint256 _count, bool _isEqual) payable {\n        require(_count > 0, \"Count must be > 0\");\n        yideng = payable(msg.sender);\n        count = _count;\n        isEqual = _isEqual;\n        totalAmount = msg.value;\n    }\n\n    function grabRedPacket() public {\n        require(count > 0, \"All red packets grabbed\");\n        require(totalAmount > 0, \"No money left\");\n        require(isGrabbed[msg.sender] == 0, \"Already grabbed\");\n\n        isGrabbed[msg.sender] = 1;\n        uint256 amount;\n\n        if (count == 1) {\n            amount = totalAmount;\n        } else if (isEqual) {\n            amount = totalAmount / count;\n        } else {\n            uint256 avg = totalAmount / count;\n            uint256 max = avg * 2;\n            uint256 min = avg / 100; // 1%\n            uint256 range = max - min;\n\n            uint256 rand = uint256(\n                keccak256(\n                    abi.encode(\n                        block.timestamp,\n                        block.prevrandao,\n                        msg.sender,\n                        totalAmount,\n                        count\n                    )\n                )\n            );\n            amount = (rand % range) + min;\n            amount = amount > totalAmount ? totalAmount : amount;\n        }\n\n        payable(msg.sender).transfer(amount);\n        totalAmount -= amount;\n        count--;\n\n        //  \n        emit Grabbed(msg.sender, amount);\n    }\n}\n\n// contract RedPacket {\n//     address payable public yideng;\n//     uint256 public totalAmount;\n//     uint256 public count;\n//     bool public isEqual;\n//     mapping(address => uint256) public isGrabbed;\n\n//     constructor(uint256 _count, bool _isEqual) payable {\n//         require(_count > 0, \"Count must be > 0\");\n//         yideng = payable(msg.sender);\n//         count = _count;\n//         isEqual = _isEqual;\n//         totalAmount = msg.value;\n//     }\n\n//     function grabRedPacket() public {\n//         require(count > 0, \"All red packets grabbed\");\n//         require(totalAmount > 0, \"No money left\");\n//         require(isGrabbed[msg.sender] == 0, \"Already grabbed\");\n\n//         isGrabbed[msg.sender] = 1;\n//         uint256 amount;\n\n//         if (count == 1) {\n//             amount = totalAmount;\n//         } else if (isEqual) {\n//             amount = totalAmount / count;\n//         } else {\n//             uint256 avg = totalAmount / count;\n//             uint256 max = avg * 2;\n//             uint256 min = avg / 100; // 1%\n//             uint256 range = max - min;\n\n//             // \n//             uint256 rand = uint256(\n//                 keccak256(\n//                     abi.encode(\n//                         block.timestamp,\n//                         block.prevrandao,\n//                         msg.sender,\n//                         totalAmount,\n//                         count\n//                     )\n//                 )\n//             );\n//             amount = (rand % range) + min;\n//             amount = amount > totalAmount ? totalAmount : amount;\n//         }\n\n//         // \n//         payable(msg.sender).transfer(amount);\n\n//         // \n//         totalAmount -= amount;\n//         count--;\n//     }\n// }\n",
  "sourcePath": "/Users/ping/Documents/project/web3-redpacket/smart-contract/contracts/RedPacket.sol",
  "compiler": {
    "name": "solc",
    "version": "0.8.21+commit.d9974bed.Emscripten.clang"
  },
  "schemaVersion": "3.4.16",
  "updatedAt": "2025-10-14T16:49:56.171Z",
  "networkType": "ethereum",
  "devdoc": {
    "kind": "dev",
    "methods": {},
    "version": 1
  },
  "userdoc": {
    "kind": "user",
    "methods": {},
    "version": 1
  }
}